{
  "_format": "hh-sol-artifact-1",
  "contractName": "Certificate",
  "sourceName": "contracts/Certificate.sol",
  "abi": [
    {
      "inputs": [
        {
          "internalType": "string",
          "name": "name",
          "type": "string"
        },
        {
          "internalType": "string",
          "name": "symbol",
          "type": "string"
        }
      ],
      "stateMutability": "nonpayable",
      "type": "constructor"
    },
    {
      "anonymous": false,
      "inputs": [
        {
          "indexed": true,
          "internalType": "address",
          "name": "owner",
          "type": "address"
        },
        {
          "indexed": true,
          "internalType": "address",
          "name": "approved",
          "type": "address"
        },
        {
          "indexed": true,
          "internalType": "uint256",
          "name": "tokenId",
          "type": "uint256"
        }
      ],
      "name": "Approval",
      "type": "event"
    },
    {
      "anonymous": false,
      "inputs": [
        {
          "indexed": true,
          "internalType": "address",
          "name": "owner",
          "type": "address"
        },
        {
          "indexed": true,
          "internalType": "address",
          "name": "operator",
          "type": "address"
        },
        {
          "indexed": false,
          "internalType": "bool",
          "name": "approved",
          "type": "bool"
        }
      ],
      "name": "ApprovalForAll",
      "type": "event"
    },
    {
      "anonymous": false,
      "inputs": [
        {
          "indexed": false,
          "internalType": "uint256",
          "name": "_fromTokenId",
          "type": "uint256"
        },
        {
          "indexed": false,
          "internalType": "uint256",
          "name": "_toTokenId",
          "type": "uint256"
        }
      ],
      "name": "BatchMetadataUpdate",
      "type": "event"
    },
    {
      "anonymous": false,
      "inputs": [
        {
          "indexed": false,
          "internalType": "uint256",
          "name": "_tokenId",
          "type": "uint256"
        }
      ],
      "name": "MetadataUpdate",
      "type": "event"
    },
    {
      "anonymous": false,
      "inputs": [
        {
          "indexed": true,
          "internalType": "address",
          "name": "previousOwner",
          "type": "address"
        },
        {
          "indexed": true,
          "internalType": "address",
          "name": "newOwner",
          "type": "address"
        }
      ],
      "name": "OwnershipTransferred",
      "type": "event"
    },
    {
      "anonymous": false,
      "inputs": [
        {
          "indexed": true,
          "internalType": "address",
          "name": "from",
          "type": "address"
        },
        {
          "indexed": true,
          "internalType": "address",
          "name": "to",
          "type": "address"
        },
        {
          "indexed": true,
          "internalType": "uint256",
          "name": "tokenId",
          "type": "uint256"
        }
      ],
      "name": "Transfer",
      "type": "event"
    },
    {
      "inputs": [
        {
          "internalType": "string",
          "name": "",
          "type": "string"
        }
      ],
      "name": "applicants",
      "outputs": [
        {
          "internalType": "address",
          "name": "addr",
          "type": "address"
        },
        {
          "internalType": "string",
          "name": "certificate",
          "type": "string"
        },
        {
          "internalType": "uint256",
          "name": "tokenId",
          "type": "uint256"
        }
      ],
      "stateMutability": "view",
      "type": "function"
    },
    {
      "inputs": [
        {
          "internalType": "address",
          "name": "to",
          "type": "address"
        },
        {
          "internalType": "uint256",
          "name": "tokenId",
          "type": "uint256"
        }
      ],
      "name": "approve",
      "outputs": [],
      "stateMutability": "nonpayable",
      "type": "function"
    },
    {
      "inputs": [
        {
          "internalType": "address",
          "name": "owner",
          "type": "address"
        }
      ],
      "name": "balanceOf",
      "outputs": [
        {
          "internalType": "uint256",
          "name": "",
          "type": "uint256"
        }
      ],
      "stateMutability": "view",
      "type": "function"
    },
    {
      "inputs": [
        {
          "internalType": "address[]",
          "name": "to",
          "type": "address[]"
        },
        {
          "internalType": "string[]",
          "name": "hash",
          "type": "string[]"
        }
      ],
      "name": "batchIssueCertificate",
      "outputs": [],
      "stateMutability": "nonpayable",
      "type": "function"
    },
    {
      "inputs": [
        {
          "internalType": "uint256",
          "name": "tokenId",
          "type": "uint256"
        }
      ],
      "name": "getApproved",
      "outputs": [
        {
          "internalType": "address",
          "name": "",
          "type": "address"
        }
      ],
      "stateMutability": "view",
      "type": "function"
    },
    {
      "inputs": [
        {
          "internalType": "address",
          "name": "owner",
          "type": "address"
        },
        {
          "internalType": "address",
          "name": "operator",
          "type": "address"
        }
      ],
      "name": "isApprovedForAll",
      "outputs": [
        {
          "internalType": "bool",
          "name": "",
          "type": "bool"
        }
      ],
      "stateMutability": "view",
      "type": "function"
    },
    {
      "inputs": [
        {
          "internalType": "address",
          "name": "to",
          "type": "address"
        },
        {
          "internalType": "string",
          "name": "hash",
          "type": "string"
        }
      ],
      "name": "issueCertificate",
      "outputs": [],
      "stateMutability": "nonpayable",
      "type": "function"
    },
    {
      "inputs": [],
      "name": "name",
      "outputs": [
        {
          "internalType": "string",
          "name": "",
          "type": "string"
        }
      ],
      "stateMutability": "view",
      "type": "function"
    },
    {
      "inputs": [],
      "name": "owner",
      "outputs": [
        {
          "internalType": "address",
          "name": "",
          "type": "address"
        }
      ],
      "stateMutability": "view",
      "type": "function"
    },
    {
      "inputs": [
        {
          "internalType": "uint256",
          "name": "tokenId",
          "type": "uint256"
        }
      ],
      "name": "ownerOf",
      "outputs": [
        {
          "internalType": "address",
          "name": "",
          "type": "address"
        }
      ],
      "stateMutability": "view",
      "type": "function"
    },
    {
      "inputs": [],
      "name": "renounceOwnership",
      "outputs": [],
      "stateMutability": "nonpayable",
      "type": "function"
    },
    {
      "inputs": [
        {
          "internalType": "address",
          "name": "from",
          "type": "address"
        },
        {
          "internalType": "address",
          "name": "to",
          "type": "address"
        },
        {
          "internalType": "uint256",
          "name": "tokenId",
          "type": "uint256"
        }
      ],
      "name": "safeTransferFrom",
      "outputs": [],
      "stateMutability": "nonpayable",
      "type": "function"
    },
    {
      "inputs": [
        {
          "internalType": "address",
          "name": "from",
          "type": "address"
        },
        {
          "internalType": "address",
          "name": "to",
          "type": "address"
        },
        {
          "internalType": "uint256",
          "name": "tokenId",
          "type": "uint256"
        },
        {
          "internalType": "bytes",
          "name": "data",
          "type": "bytes"
        }
      ],
      "name": "safeTransferFrom",
      "outputs": [],
      "stateMutability": "nonpayable",
      "type": "function"
    },
    {
      "inputs": [
        {
          "internalType": "address",
          "name": "operator",
          "type": "address"
        },
        {
          "internalType": "bool",
          "name": "approved",
          "type": "bool"
        }
      ],
      "name": "setApprovalForAll",
      "outputs": [],
      "stateMutability": "nonpayable",
      "type": "function"
    },
    {
      "inputs": [
        {
          "internalType": "bytes4",
          "name": "interfaceId",
          "type": "bytes4"
        }
      ],
      "name": "supportsInterface",
      "outputs": [
        {
          "internalType": "bool",
          "name": "",
          "type": "bool"
        }
      ],
      "stateMutability": "view",
      "type": "function"
    },
    {
      "inputs": [],
      "name": "symbol",
      "outputs": [
        {
          "internalType": "string",
          "name": "",
          "type": "string"
        }
      ],
      "stateMutability": "view",
      "type": "function"
    },
    {
      "inputs": [
        {
          "internalType": "uint256",
          "name": "index",
          "type": "uint256"
        }
      ],
      "name": "tokenByIndex",
      "outputs": [
        {
          "internalType": "uint256",
          "name": "",
          "type": "uint256"
        }
      ],
      "stateMutability": "view",
      "type": "function"
    },
    {
      "inputs": [
        {
          "internalType": "address",
          "name": "owner",
          "type": "address"
        },
        {
          "internalType": "uint256",
          "name": "index",
          "type": "uint256"
        }
      ],
      "name": "tokenOfOwnerByIndex",
      "outputs": [
        {
          "internalType": "uint256",
          "name": "",
          "type": "uint256"
        }
      ],
      "stateMutability": "view",
      "type": "function"
    },
    {
      "inputs": [
        {
          "internalType": "uint256",
          "name": "tokenId",
          "type": "uint256"
        }
      ],
      "name": "tokenURI",
      "outputs": [
        {
          "internalType": "string",
          "name": "",
          "type": "string"
        }
      ],
      "stateMutability": "view",
      "type": "function"
    },
    {
      "inputs": [],
      "name": "totalSupply",
      "outputs": [
        {
          "internalType": "uint256",
          "name": "",
          "type": "uint256"
        }
      ],
      "stateMutability": "view",
      "type": "function"
    },
    {
      "inputs": [
        {
          "internalType": "address",
          "name": "from",
          "type": "address"
        },
        {
          "internalType": "address",
          "name": "to",
          "type": "address"
        },
        {
          "internalType": "uint256",
          "name": "tokenId",
          "type": "uint256"
        }
      ],
      "name": "transferFrom",
      "outputs": [],
      "stateMutability": "nonpayable",
      "type": "function"
    },
    {
      "inputs": [
        {
          "internalType": "address",
          "name": "newOwner",
          "type": "address"
        }
      ],
      "name": "transferOwnership",
      "outputs": [],
      "stateMutability": "nonpayable",
      "type": "function"
    },
    {
      "inputs": [
        {
          "internalType": "address",
          "name": "addr",
          "type": "address"
        },
        {
          "internalType": "string",
          "name": "hash",
          "type": "string"
        }
      ],
      "name": "verifyCertificate",
      "outputs": [
        {
          "internalType": "bool",
          "name": "",
          "type": "bool"
        }
      ],
      "stateMutability": "view",
      "type": "function"
    }
  ],
  "bytecode": "0x60806040523480156200001157600080fd5b506040516200469a3803806200469a8339818101604052810190620000379190620002e8565b818181600090816200004a9190620005b8565b5080600190816200005c9190620005b8565b5050506200007f620000736200008760201b60201c565b6200008f60201b60201c565b50506200069f565b600033905090565b6000600b60009054906101000a900473ffffffffffffffffffffffffffffffffffffffff16905081600b60006101000a81548173ffffffffffffffffffffffffffffffffffffffff021916908373ffffffffffffffffffffffffffffffffffffffff1602179055508173ffffffffffffffffffffffffffffffffffffffff168173ffffffffffffffffffffffffffffffffffffffff167f8be0079c531659141344cd1fd0a4f28419497f9722a3daafe3b4186f6b6457e060405160405180910390a35050565b6000604051905090565b600080fd5b600080fd5b600080fd5b600080fd5b6000601f19601f8301169050919050565b7f4e487b7100000000000000000000000000000000000000000000000000000000600052604160045260246000fd5b620001be8262000173565b810181811067ffffffffffffffff82111715620001e057620001df62000184565b5b80604052505050565b6000620001f562000155565b9050620002038282620001b3565b919050565b600067ffffffffffffffff82111562000226576200022562000184565b5b620002318262000173565b9050602081019050919050565b60005b838110156200025e57808201518184015260208101905062000241565b60008484015250505050565b6000620002816200027b8462000208565b620001e9565b905082815260208101848484011115620002a0576200029f6200016e565b5b620002ad8482856200023e565b509392505050565b600082601f830112620002cd57620002cc62000169565b5b8151620002df8482602086016200026a565b91505092915050565b600080604083850312156200030257620003016200015f565b5b600083015167ffffffffffffffff81111562000323576200032262000164565b5b6200033185828601620002b5565b925050602083015167ffffffffffffffff81111562000355576200035462000164565b5b6200036385828601620002b5565b9150509250929050565b600081519050919050565b7f4e487b7100000000000000000000000000000000000000000000000000000000600052602260045260246000fd5b60006002820490506001821680620003c057607f821691505b602082108103620003d657620003d562000378565b5b50919050565b60008190508160005260206000209050919050565b60006020601f8301049050919050565b600082821b905092915050565b600060088302620004407fffffffffffffffffffffffffffffffffffffffffffffffffffffffffffffffff8262000401565b6200044c868362000401565b95508019841693508086168417925050509392505050565b6000819050919050565b6000819050919050565b600062000499620004936200048d8462000464565b6200046e565b62000464565b9050919050565b6000819050919050565b620004b58362000478565b620004cd620004c482620004a0565b8484546200040e565b825550505050565b600090565b620004e4620004d5565b620004f1818484620004aa565b505050565b5b8181101562000519576200050d600082620004da565b600181019050620004f7565b5050565b601f82111562000568576200053281620003dc565b6200053d84620003f1565b810160208510156200054d578190505b620005656200055c85620003f1565b830182620004f6565b50505b505050565b600082821c905092915050565b60006200058d600019846008026200056d565b1980831691505092915050565b6000620005a883836200057a565b9150826002028217905092915050565b620005c3826200036d565b67ffffffffffffffff811115620005df57620005de62000184565b5b620005eb8254620003a7565b620005f88282856200051d565b600060209050601f8311600181146200063057600084156200061b578287015190505b6200062785826200059a565b86555062000697565b601f1984166200064086620003dc565b60005b828110156200066a5784890151825560018201915060208501945060208101905062000643565b868310156200068a578489015162000686601f8916826200057a565b8355505b6001600288020188555050505b505050505050565b613feb80620006af6000396000f3fe608060405234801561001057600080fd5b506004361061014d5760003560e01c80636352211e116100c3578063a22cb4651161007c578063a22cb465146103c6578063b88d4fde146103e2578063bb721aab146103fe578063c87b56dd1461041a578063e985e9c51461044a578063f2fde38b1461047a5761014d565b80636352211e1461030457806370a0823114610334578063715018a6146103645780638da5cb5b1461036e57806395d89b411461038c5780639ae5eb91146103aa5761014d565b806323b872dd1161011557806323b872dd1461020a5780632f745c591461022657806332cc82b31461025657806335627d5d1461028657806342842e0e146102b85780634f6ccce7146102d45761014d565b806301ffc9a71461015257806306fdde0314610182578063081812fc146101a0578063095ea7b3146101d057806318160ddd146101ec575b600080fd5b61016c60048036038101906101679190612760565b610496565b60405161017991906127a8565b60405180910390f35b61018a6104a8565b6040516101979190612853565b60405180910390f35b6101ba60048036038101906101b591906128ab565b61053a565b6040516101c79190612919565b60405180910390f35b6101ea60048036038101906101e59190612960565b610580565b005b6101f4610697565b60405161020191906129af565b60405180910390f35b610224600480360381019061021f91906129ca565b6106a4565b005b610240600480360381019061023b9190612960565b610704565b60405161024d91906129af565b60405180910390f35b610270600480360381019061026b9190612b52565b6107a9565b60405161027d91906127a8565b60405180910390f35b6102a0600480360381019061029b9190612bae565b610823565b6040516102af93929190612bf7565b60405180910390f35b6102d260048036038101906102cd91906129ca565b61090b565b005b6102ee60048036038101906102e991906128ab565b61092b565b6040516102fb91906129af565b60405180910390f35b61031e600480360381019061031991906128ab565b61099c565b60405161032b9190612919565b60405180910390f35b61034e60048036038101906103499190612c35565b610a22565b60405161035b91906129af565b60405180910390f35b61036c610ad9565b005b610376610aed565b6040516103839190612919565b60405180910390f35b610394610b17565b6040516103a19190612853565b60405180910390f35b6103c460048036038101906103bf9190612e0b565b610ba9565b005b6103e060048036038101906103db9190612eaf565b610c57565b005b6103fc60048036038101906103f79190612f90565b610c6d565b005b61041860048036038101906104139190612b52565b610ccf565b005b610434600480360381019061042f91906128ab565b610ce5565b6040516104419190612853565b60405180910390f35b610464600480360381019061045f9190613013565b610cf7565b60405161047191906127a8565b60405180910390f35b610494600480360381019061048f9190612c35565b610d8b565b005b60006104a182610e0e565b9050919050565b6060600080546104b790613082565b80601f01602080910402602001604051908101604052809291908181526020018280546104e390613082565b80156105305780601f1061050557610100808354040283529160200191610530565b820191906000526020600020905b81548152906001019060200180831161051357829003601f168201915b5050505050905090565b600061054582610e6f565b6004600083815260200190815260200160002060009054906101000a900473ffffffffffffffffffffffffffffffffffffffff169050919050565b600061058b8261099c565b90508073ffffffffffffffffffffffffffffffffffffffff168373ffffffffffffffffffffffffffffffffffffffff16036105fb576040517f08c379a00000000000000000000000000000000000000000000000000000000081526004016105f290613125565b60405180910390fd5b8073ffffffffffffffffffffffffffffffffffffffff1661061a610eba565b73ffffffffffffffffffffffffffffffffffffffff161480610649575061064881610643610eba565b610cf7565b5b610688576040517f08c379a000000000000000000000000000000000000000000000000000000000815260040161067f906131b7565b60405180910390fd5b6106928383610ec2565b505050565b6000600880549050905090565b6106b56106af610eba565b82610f7b565b6106f4576040517f08c379a00000000000000000000000000000000000000000000000000000000081526004016106eb90613249565b60405180910390fd5b6106ff838383611010565b505050565b600061070f83610a22565b8210610750576040517f08c379a0000000000000000000000000000000000000000000000000000000008152600401610747906132db565b60405180910390fd5b600660008473ffffffffffffffffffffffffffffffffffffffff1673ffffffffffffffffffffffffffffffffffffffff168152602001908152602001600020600083815260200190815260200160002054905092915050565b60008273ffffffffffffffffffffffffffffffffffffffff16600c836040516107d29190613337565b908152602001604051809103902060000160009054906101000a900473ffffffffffffffffffffffffffffffffffffffff1673ffffffffffffffffffffffffffffffffffffffff1614905092915050565b600c818051602081018201805184825260208301602085012081835280955050505050506000915090508060000160009054906101000a900473ffffffffffffffffffffffffffffffffffffffff169080600101805461088290613082565b80601f01602080910402602001604051908101604052809291908181526020018280546108ae90613082565b80156108fb5780601f106108d0576101008083540402835291602001916108fb565b820191906000526020600020905b8154815290600101906020018083116108de57829003601f168201915b5050505050908060020154905083565b61092683838360405180602001604052806000815250610c6d565b505050565b6000610935610697565b8210610976576040517f08c379a000000000000000000000000000000000000000000000000000000000815260040161096d906133c0565b60405180910390fd5b6008828154811061098a576109896133e0565b5b90600052602060002001549050919050565b6000806109a883611309565b9050600073ffffffffffffffffffffffffffffffffffffffff168173ffffffffffffffffffffffffffffffffffffffff1603610a19576040517f08c379a0000000000000000000000000000000000000000000000000000000008152600401610a109061345b565b60405180910390fd5b80915050919050565b60008073ffffffffffffffffffffffffffffffffffffffff168273ffffffffffffffffffffffffffffffffffffffff1603610a92576040517f08c379a0000000000000000000000000000000000000000000000000000000008152600401610a89906134ed565b60405180910390fd5b600360008373ffffffffffffffffffffffffffffffffffffffff1673ffffffffffffffffffffffffffffffffffffffff168152602001908152602001600020549050919050565b610ae1611346565b610aeb60006113c4565b565b6000600b60009054906101000a900473ffffffffffffffffffffffffffffffffffffffff16905090565b606060018054610b2690613082565b80601f0160208091040260200160405190810160405280929190818152602001828054610b5290613082565b8015610b9f5780601f10610b7457610100808354040283529160200191610b9f565b820191906000526020600020905b815481529060010190602001808311610b8257829003601f168201915b5050505050905090565b610bb1611346565b8051825114610bf5576040517f08c379a0000000000000000000000000000000000000000000000000000000008152600401610bec9061357f565b60405180910390fd5b60005b8251811015610c5257610c3f838281518110610c1757610c166133e0565b5b6020026020010151838381518110610c3257610c316133e0565b5b602002602001015161148a565b8080610c4a906135ce565b915050610bf8565b505050565b610c69610c62610eba565b838361157a565b5050565b610c7e610c78610eba565b83610f7b565b610cbd576040517f08c379a0000000000000000000000000000000000000000000000000000000008152600401610cb490613249565b60405180910390fd5b610cc9848484846116e6565b50505050565b610cd7611346565b610ce1828261148a565b5050565b6060610cf082611742565b9050919050565b6000600560008473ffffffffffffffffffffffffffffffffffffffff1673ffffffffffffffffffffffffffffffffffffffff16815260200190815260200160002060008373ffffffffffffffffffffffffffffffffffffffff1673ffffffffffffffffffffffffffffffffffffffff16815260200190815260200160002060009054906101000a900460ff16905092915050565b610d93611346565b600073ffffffffffffffffffffffffffffffffffffffff168173ffffffffffffffffffffffffffffffffffffffff1603610e02576040517f08c379a0000000000000000000000000000000000000000000000000000000008152600401610df990613688565b60405180910390fd5b610e0b816113c4565b50565b6000634906490660e01b7bffffffffffffffffffffffffffffffffffffffffffffffffffffffff1916827bffffffffffffffffffffffffffffffffffffffffffffffffffffffff19161480610e685750610e6782611854565b5b9050919050565b610e78816118ce565b610eb7576040517f08c379a0000000000000000000000000000000000000000000000000000000008152600401610eae9061345b565b60405180910390fd5b50565b600033905090565b816004600083815260200190815260200160002060006101000a81548173ffffffffffffffffffffffffffffffffffffffff021916908373ffffffffffffffffffffffffffffffffffffffff160217905550808273ffffffffffffffffffffffffffffffffffffffff16610f358361099c565b73ffffffffffffffffffffffffffffffffffffffff167f8c5be1e5ebec7d5bd14f71427d1e84f3dd0314c0f7b2291e5b200ac8c7c3b92560405160405180910390a45050565b600080610f878361099c565b90508073ffffffffffffffffffffffffffffffffffffffff168473ffffffffffffffffffffffffffffffffffffffff161480610fc95750610fc88185610cf7565b5b8061100757508373ffffffffffffffffffffffffffffffffffffffff16610fef8461053a565b73ffffffffffffffffffffffffffffffffffffffff16145b91505092915050565b8273ffffffffffffffffffffffffffffffffffffffff166110308261099c565b73ffffffffffffffffffffffffffffffffffffffff1614611086576040517f08c379a000000000000000000000000000000000000000000000000000000000815260040161107d9061371a565b60405180910390fd5b600073ffffffffffffffffffffffffffffffffffffffff168273ffffffffffffffffffffffffffffffffffffffff16036110f5576040517f08c379a00000000000000000000000000000000000000000000000000000000081526004016110ec906137ac565b60405180910390fd5b611102838383600161190f565b8273ffffffffffffffffffffffffffffffffffffffff166111228261099c565b73ffffffffffffffffffffffffffffffffffffffff1614611178576040517f08c379a000000000000000000000000000000000000000000000000000000000815260040161116f9061371a565b60405180910390fd5b6004600082815260200190815260200160002060006101000a81549073ffffffffffffffffffffffffffffffffffffffff02191690556001600360008573ffffffffffffffffffffffffffffffffffffffff1673ffffffffffffffffffffffffffffffffffffffff168152602001908152602001600020600082825403925050819055506001600360008473ffffffffffffffffffffffffffffffffffffffff1673ffffffffffffffffffffffffffffffffffffffff16815260200190815260200160002060008282540192505081905550816002600083815260200190815260200160002060006101000a81548173ffffffffffffffffffffffffffffffffffffffff021916908373ffffffffffffffffffffffffffffffffffffffff160217905550808273ffffffffffffffffffffffffffffffffffffffff168473ffffffffffffffffffffffffffffffffffffffff167fddf252ad1be2c89b69c2b068fc378daa952ba7f163c4a11628f55a4df523b3ef60405160405180910390a46113048383836001611990565b505050565b60006002600083815260200190815260200160002060009054906101000a900473ffffffffffffffffffffffffffffffffffffffff169050919050565b61134e610eba565b73ffffffffffffffffffffffffffffffffffffffff1661136c610aed565b73ffffffffffffffffffffffffffffffffffffffff16146113c2576040517f08c379a00000000000000000000000000000000000000000000000000000000081526004016113b990613818565b60405180910390fd5b565b6000600b60009054906101000a900473ffffffffffffffffffffffffffffffffffffffff16905081600b60006101000a81548173ffffffffffffffffffffffffffffffffffffffff021916908373ffffffffffffffffffffffffffffffffffffffff1602179055508173ffffffffffffffffffffffffffffffffffffffff168173ffffffffffffffffffffffffffffffffffffffff167f8be0079c531659141344cd1fd0a4f28419497f9722a3daafe3b4186f6b6457e060405160405180910390a35050565b6000611496600d611996565b90506114a2600d6119a4565b6114ac83826119ba565b6114b681836119d8565b600060405180606001604052808573ffffffffffffffffffffffffffffffffffffffff16815260200184815260200183815250905080600c846040516114fc9190613337565b908152602001604051809103902060008201518160000160006101000a81548173ffffffffffffffffffffffffffffffffffffffff021916908373ffffffffffffffffffffffffffffffffffffffff160217905550602082015181600101908161156691906139e4565b506040820151816002015590505050505050565b8173ffffffffffffffffffffffffffffffffffffffff168373ffffffffffffffffffffffffffffffffffffffff16036115e8576040517f08c379a00000000000000000000000000000000000000000000000000000000081526004016115df90613b02565b60405180910390fd5b80600560008573ffffffffffffffffffffffffffffffffffffffff1673ffffffffffffffffffffffffffffffffffffffff16815260200190815260200160002060008473ffffffffffffffffffffffffffffffffffffffff1673ffffffffffffffffffffffffffffffffffffffff16815260200190815260200160002060006101000a81548160ff0219169083151502179055508173ffffffffffffffffffffffffffffffffffffffff168373ffffffffffffffffffffffffffffffffffffffff167f17307eab39ab6107e8899845ad3d59bd9653f200f220920489ca2b5937696c31836040516116d991906127a8565b60405180910390a3505050565b6116f1848484611010565b6116fd84848484611a7c565b61173c576040517f08c379a000000000000000000000000000000000000000000000000000000000815260040161173390613b94565b60405180910390fd5b50505050565b606061174d82610e6f565b6000600a6000848152602001908152602001600020805461176d90613082565b80601f016020809104026020016040519081016040528092919081815260200182805461179990613082565b80156117e65780601f106117bb576101008083540402835291602001916117e6565b820191906000526020600020905b8154815290600101906020018083116117c957829003601f168201915b5050505050905060006117f7611c03565b9050600081510361180c57819250505061184f565b600082511115611841578082604051602001611829929190613bb4565b6040516020818303038152906040529250505061184f565b61184a84611c1a565b925050505b919050565b60007f780e9d63000000000000000000000000000000000000000000000000000000007bffffffffffffffffffffffffffffffffffffffffffffffffffffffff1916827bffffffffffffffffffffffffffffffffffffffffffffffffffffffff191614806118c757506118c682611c82565b5b9050919050565b60008073ffffffffffffffffffffffffffffffffffffffff166118f083611309565b73ffffffffffffffffffffffffffffffffffffffff1614159050919050565b600073ffffffffffffffffffffffffffffffffffffffff168473ffffffffffffffffffffffffffffffffffffffff161461197e576040517f08c379a000000000000000000000000000000000000000000000000000000000815260040161197590613c24565b60405180910390fd5b61198a84848484611d64565b50505050565b50505050565b600081600001549050919050565b6001816000016000828254019250508190555050565b6119d4828260405180602001604052806000815250611ec2565b5050565b6119e1826118ce565b611a20576040517f08c379a0000000000000000000000000000000000000000000000000000000008152600401611a1790613cb6565b60405180910390fd5b80600a60008481526020019081526020016000209081611a4091906139e4565b507ff8e1a15aba9398e019f0b49df1a4fde98ee17ae345cb5f6b5e2c27f5033e8ce782604051611a7091906129af565b60405180910390a15050565b6000611a9d8473ffffffffffffffffffffffffffffffffffffffff16611f1d565b15611bf6578373ffffffffffffffffffffffffffffffffffffffff1663150b7a02611ac6610eba565b8786866040518563ffffffff1660e01b8152600401611ae89493929190613d2b565b6020604051808303816000875af1925050508015611b2457506040513d601f19601f82011682018060405250810190611b219190613d8c565b60015b611ba6573d8060008114611b54576040519150601f19603f3d011682016040523d82523d6000602084013e611b59565b606091505b506000815103611b9e576040517f08c379a0000000000000000000000000000000000000000000000000000000008152600401611b9590613b94565b60405180910390fd5b805181602001fd5b63150b7a0260e01b7bffffffffffffffffffffffffffffffffffffffffffffffffffffffff1916817bffffffffffffffffffffffffffffffffffffffffffffffffffffffff191614915050611bfb565b600190505b949350505050565b606060405180602001604052806000815250905090565b6060611c2582610e6f565b6000611c2f611c03565b90506000815111611c4f5760405180602001604052806000815250611c7a565b80611c5984611f40565b604051602001611c6a929190613bb4565b6040516020818303038152906040525b915050919050565b60007f80ac58cd000000000000000000000000000000000000000000000000000000007bffffffffffffffffffffffffffffffffffffffffffffffffffffffff1916827bffffffffffffffffffffffffffffffffffffffffffffffffffffffff19161480611d4d57507f5b5e139f000000000000000000000000000000000000000000000000000000007bffffffffffffffffffffffffffffffffffffffffffffffffffffffff1916827bffffffffffffffffffffffffffffffffffffffffffffffffffffffff1916145b80611d5d5750611d5c8261200e565b5b9050919050565b611d7084848484612078565b6001811115611db4576040517f08c379a0000000000000000000000000000000000000000000000000000000008152600401611dab90613e2b565b60405180910390fd5b6000829050600073ffffffffffffffffffffffffffffffffffffffff168573ffffffffffffffffffffffffffffffffffffffff1603611dfb57611df68161207e565b611e3a565b8373ffffffffffffffffffffffffffffffffffffffff168573ffffffffffffffffffffffffffffffffffffffff1614611e3957611e3885826120c7565b5b5b600073ffffffffffffffffffffffffffffffffffffffff168473ffffffffffffffffffffffffffffffffffffffff1603611e7c57611e7781612234565b611ebb565b8473ffffffffffffffffffffffffffffffffffffffff168473ffffffffffffffffffffffffffffffffffffffff1614611eba57611eb98482612305565b5b5b5050505050565b611ecc8383612384565b611ed96000848484611a7c565b611f18576040517f08c379a0000000000000000000000000000000000000000000000000000000008152600401611f0f90613b94565b60405180910390fd5b505050565b6000808273ffffffffffffffffffffffffffffffffffffffff163b119050919050565b606060006001611f4f846125a1565b01905060008167ffffffffffffffff811115611f6e57611f6d612a27565b5b6040519080825280601f01601f191660200182016040528015611fa05781602001600182028036833780820191505090505b509050600082602001820190505b600115612003578080600190039150507f3031323334353637383961626364656600000000000000000000000000000000600a86061a8153600a8581611ff757611ff6613e4b565b5b04945060008503611fae575b819350505050919050565b60007f01ffc9a7000000000000000000000000000000000000000000000000000000007bffffffffffffffffffffffffffffffffffffffffffffffffffffffff1916827bffffffffffffffffffffffffffffffffffffffffffffffffffffffff1916149050919050565b50505050565b6008805490506009600083815260200190815260200160002081905550600881908060018154018082558091505060019003906000526020600020016000909190919091505550565b600060016120d484610a22565b6120de9190613e7a565b90506000600760008481526020019081526020016000205490508181146121c3576000600660008673ffffffffffffffffffffffffffffffffffffffff1673ffffffffffffffffffffffffffffffffffffffff168152602001908152602001600020600084815260200190815260200160002054905080600660008773ffffffffffffffffffffffffffffffffffffffff1673ffffffffffffffffffffffffffffffffffffffff168152602001908152602001600020600084815260200190815260200160002081905550816007600083815260200190815260200160002081905550505b6007600084815260200190815260200160002060009055600660008573ffffffffffffffffffffffffffffffffffffffff1673ffffffffffffffffffffffffffffffffffffffff16815260200190815260200160002060008381526020019081526020016000206000905550505050565b600060016008805490506122489190613e7a565b9050600060096000848152602001908152602001600020549050600060088381548110612278576122776133e0565b5b90600052602060002001549050806008838154811061229a576122996133e0565b5b9060005260206000200181905550816009600083815260200190815260200160002081905550600960008581526020019081526020016000206000905560088054806122e9576122e8613eae565b5b6001900381819060005260206000200160009055905550505050565b600061231083610a22565b905081600660008573ffffffffffffffffffffffffffffffffffffffff1673ffffffffffffffffffffffffffffffffffffffff168152602001908152602001600020600083815260200190815260200160002081905550806007600084815260200190815260200160002081905550505050565b600073ffffffffffffffffffffffffffffffffffffffff168273ffffffffffffffffffffffffffffffffffffffff16036123f3576040517f08c379a00000000000000000000000000000000000000000000000000000000081526004016123ea90613f29565b60405180910390fd5b6123fc816118ce565b1561243c576040517f08c379a000000000000000000000000000000000000000000000000000000000815260040161243390613f95565b60405180910390fd5b61244a60008383600161190f565b612453816118ce565b15612493576040517f08c379a000000000000000000000000000000000000000000000000000000000815260040161248a90613f95565b60405180910390fd5b6001600360008473ffffffffffffffffffffffffffffffffffffffff1673ffffffffffffffffffffffffffffffffffffffff16815260200190815260200160002060008282540192505081905550816002600083815260200190815260200160002060006101000a81548173ffffffffffffffffffffffffffffffffffffffff021916908373ffffffffffffffffffffffffffffffffffffffff160217905550808273ffffffffffffffffffffffffffffffffffffffff16600073ffffffffffffffffffffffffffffffffffffffff167fddf252ad1be2c89b69c2b068fc378daa952ba7f163c4a11628f55a4df523b3ef60405160405180910390a461259d600083836001611990565b5050565b600080600090507a184f03e93ff9f4daa797ed6e38ed64bf6a1f01000000000000000083106125ff577a184f03e93ff9f4daa797ed6e38ed64bf6a1f01000000000000000083816125f5576125f4613e4b565b5b0492506040810190505b6d04ee2d6d415b85acef8100000000831061263c576d04ee2d6d415b85acef8100000000838161263257612631613e4b565b5b0492506020810190505b662386f26fc10000831061266b57662386f26fc10000838161266157612660613e4b565b5b0492506010810190505b6305f5e1008310612694576305f5e100838161268a57612689613e4b565b5b0492506008810190505b61271083106126b95761271083816126af576126ae613e4b565b5b0492506004810190505b606483106126dc57606483816126d2576126d1613e4b565b5b0492506002810190505b600a83106126eb576001810190505b80915050919050565b6000604051905090565b600080fd5b600080fd5b60007fffffffff0000000000000000000000000000000000000000000000000000000082169050919050565b61273d81612708565b811461274857600080fd5b50565b60008135905061275a81612734565b92915050565b600060208284031215612776576127756126fe565b5b60006127848482850161274b565b91505092915050565b60008115159050919050565b6127a28161278d565b82525050565b60006020820190506127bd6000830184612799565b92915050565b600081519050919050565b600082825260208201905092915050565b60005b838110156127fd5780820151818401526020810190506127e2565b60008484015250505050565b6000601f19601f8301169050919050565b6000612825826127c3565b61282f81856127ce565b935061283f8185602086016127df565b61284881612809565b840191505092915050565b6000602082019050818103600083015261286d818461281a565b905092915050565b6000819050919050565b61288881612875565b811461289357600080fd5b50565b6000813590506128a58161287f565b92915050565b6000602082840312156128c1576128c06126fe565b5b60006128cf84828501612896565b91505092915050565b600073ffffffffffffffffffffffffffffffffffffffff82169050919050565b6000612903826128d8565b9050919050565b612913816128f8565b82525050565b600060208201905061292e600083018461290a565b92915050565b61293d816128f8565b811461294857600080fd5b50565b60008135905061295a81612934565b92915050565b60008060408385031215612977576129766126fe565b5b60006129858582860161294b565b925050602061299685828601612896565b9150509250929050565b6129a981612875565b82525050565b60006020820190506129c460008301846129a0565b92915050565b6000806000606084860312156129e3576129e26126fe565b5b60006129f18682870161294b565b9350506020612a028682870161294b565b9250506040612a1386828701612896565b9150509250925092565b600080fd5b600080fd5b7f4e487b7100000000000000000000000000000000000000000000000000000000600052604160045260246000fd5b612a5f82612809565b810181811067ffffffffffffffff82111715612a7e57612a7d612a27565b5b80604052505050565b6000612a916126f4565b9050612a9d8282612a56565b919050565b600067ffffffffffffffff821115612abd57612abc612a27565b5b612ac682612809565b9050602081019050919050565b82818337600083830152505050565b6000612af5612af084612aa2565b612a87565b905082815260208101848484011115612b1157612b10612a22565b5b612b1c848285612ad3565b509392505050565b600082601f830112612b3957612b38612a1d565b5b8135612b49848260208601612ae2565b91505092915050565b60008060408385031215612b6957612b686126fe565b5b6000612b778582860161294b565b925050602083013567ffffffffffffffff811115612b9857612b97612703565b5b612ba485828601612b24565b9150509250929050565b600060208284031215612bc457612bc36126fe565b5b600082013567ffffffffffffffff811115612be257612be1612703565b5b612bee84828501612b24565b91505092915050565b6000606082019050612c0c600083018661290a565b8181036020830152612c1e818561281a565b9050612c2d60408301846129a0565b949350505050565b600060208284031215612c4b57612c4a6126fe565b5b6000612c598482850161294b565b91505092915050565b600067ffffffffffffffff821115612c7d57612c7c612a27565b5b602082029050602081019050919050565b600080fd5b6000612ca6612ca184612c62565b612a87565b90508083825260208201905060208402830185811115612cc957612cc8612c8e565b5b835b81811015612cf25780612cde888261294b565b845260208401935050602081019050612ccb565b5050509392505050565b600082601f830112612d1157612d10612a1d565b5b8135612d21848260208601612c93565b91505092915050565b600067ffffffffffffffff821115612d4557612d44612a27565b5b602082029050602081019050919050565b6000612d69612d6484612d2a565b612a87565b90508083825260208201905060208402830185811115612d8c57612d8b612c8e565b5b835b81811015612dd357803567ffffffffffffffff811115612db157612db0612a1d565b5b808601612dbe8982612b24565b85526020850194505050602081019050612d8e565b5050509392505050565b600082601f830112612df257612df1612a1d565b5b8135612e02848260208601612d56565b91505092915050565b60008060408385031215612e2257612e216126fe565b5b600083013567ffffffffffffffff811115612e4057612e3f612703565b5b612e4c85828601612cfc565b925050602083013567ffffffffffffffff811115612e6d57612e6c612703565b5b612e7985828601612ddd565b9150509250929050565b612e8c8161278d565b8114612e9757600080fd5b50565b600081359050612ea981612e83565b92915050565b60008060408385031215612ec657612ec56126fe565b5b6000612ed48582860161294b565b9250506020612ee585828601612e9a565b9150509250929050565b600067ffffffffffffffff821115612f0a57612f09612a27565b5b612f1382612809565b9050602081019050919050565b6000612f33612f2e84612eef565b612a87565b905082815260208101848484011115612f4f57612f4e612a22565b5b612f5a848285612ad3565b509392505050565b600082601f830112612f7757612f76612a1d565b5b8135612f87848260208601612f20565b91505092915050565b60008060008060808587031215612faa57612fa96126fe565b5b6000612fb88782880161294b565b9450506020612fc98782880161294b565b9350506040612fda87828801612896565b925050606085013567ffffffffffffffff811115612ffb57612ffa612703565b5b61300787828801612f62565b91505092959194509250565b6000806040838503121561302a576130296126fe565b5b60006130388582860161294b565b92505060206130498582860161294b565b9150509250929050565b7f4e487b7100000000000000000000000000000000000000000000000000000000600052602260045260246000fd5b6000600282049050600182168061309a57607f821691505b6020821081036130ad576130ac613053565b5b50919050565b7f4552433732313a20617070726f76616c20746f2063757272656e74206f776e6560008201527f7200000000000000000000000000000000000000000000000000000000000000602082015250565b600061310f6021836127ce565b915061311a826130b3565b604082019050919050565b6000602082019050818103600083015261313e81613102565b9050919050565b7f4552433732313a20617070726f76652063616c6c6572206973206e6f7420746f60008201527f6b656e206f776e6572206f7220617070726f76656420666f7220616c6c000000602082015250565b60006131a1603d836127ce565b91506131ac82613145565b604082019050919050565b600060208201905081810360008301526131d081613194565b9050919050565b7f4552433732313a2063616c6c6572206973206e6f7420746f6b656e206f776e6560008201527f72206f7220617070726f76656400000000000000000000000000000000000000602082015250565b6000613233602d836127ce565b915061323e826131d7565b604082019050919050565b6000602082019050818103600083015261326281613226565b9050919050565b7f455243373231456e756d657261626c653a206f776e657220696e646578206f7560008201527f74206f6620626f756e6473000000000000000000000000000000000000000000602082015250565b60006132c5602b836127ce565b91506132d082613269565b604082019050919050565b600060208201905081810360008301526132f4816132b8565b9050919050565b600081905092915050565b6000613311826127c3565b61331b81856132fb565b935061332b8185602086016127df565b80840191505092915050565b60006133438284613306565b915081905092915050565b7f455243373231456e756d657261626c653a20676c6f62616c20696e646578206f60008201527f7574206f6620626f756e64730000000000000000000000000000000000000000602082015250565b60006133aa602c836127ce565b91506133b58261334e565b604082019050919050565b600060208201905081810360008301526133d98161339d565b9050919050565b7f4e487b7100000000000000000000000000000000000000000000000000000000600052603260045260246000fd5b7f4552433732313a20696e76616c696420746f6b656e2049440000000000000000600082015250565b60006134456018836127ce565b91506134508261340f565b602082019050919050565b6000602082019050818103600083015261347481613438565b9050919050565b7f4552433732313a2061646472657373207a65726f206973206e6f74206120766160008201527f6c6964206f776e65720000000000000000000000000000000000000000000000602082015250565b60006134d76029836127ce565b91506134e28261347b565b604082019050919050565b60006020820190508181036000830152613506816134ca565b9050919050565b7f546865206c656e677468206f6620746f20616e64206861736873206d7573742060008201527f626520657175616c000000000000000000000000000000000000000000000000602082015250565b60006135696028836127ce565b91506135748261350d565b604082019050919050565b600060208201905081810360008301526135988161355c565b9050919050565b7f4e487b7100000000000000000000000000000000000000000000000000000000600052601160045260246000fd5b60006135d982612875565b91507fffffffffffffffffffffffffffffffffffffffffffffffffffffffffffffffff820361360b5761360a61359f565b5b600182019050919050565b7f4f776e61626c653a206e6577206f776e657220697320746865207a65726f206160008201527f6464726573730000000000000000000000000000000000000000000000000000602082015250565b60006136726026836127ce565b915061367d82613616565b604082019050919050565b600060208201905081810360008301526136a181613665565b9050919050565b7f4552433732313a207472616e736665722066726f6d20696e636f72726563742060008201527f6f776e6572000000000000000000000000000000000000000000000000000000602082015250565b60006137046025836127ce565b915061370f826136a8565b604082019050919050565b60006020820190508181036000830152613733816136f7565b9050919050565b7f4552433732313a207472616e7366657220746f20746865207a65726f2061646460008201527f7265737300000000000000000000000000000000000000000000000000000000602082015250565b60006137966024836127ce565b91506137a18261373a565b604082019050919050565b600060208201905081810360008301526137c581613789565b9050919050565b7f4f776e61626c653a2063616c6c6572206973206e6f7420746865206f776e6572600082015250565b60006138026020836127ce565b915061380d826137cc565b602082019050919050565b60006020820190508181036000830152613831816137f5565b9050919050565b60008190508160005260206000209050919050565b60006020601f8301049050919050565b600082821b905092915050565b60006008830261389a7fffffffffffffffffffffffffffffffffffffffffffffffffffffffffffffffff8261385d565b6138a4868361385d565b95508019841693508086168417925050509392505050565b6000819050919050565b60006138e16138dc6138d784612875565b6138bc565b612875565b9050919050565b6000819050919050565b6138fb836138c6565b61390f613907826138e8565b84845461386a565b825550505050565b600090565b613924613917565b61392f8184846138f2565b505050565b5b818110156139535761394860008261391c565b600181019050613935565b5050565b601f8211156139985761396981613838565b6139728461384d565b81016020851015613981578190505b61399561398d8561384d565b830182613934565b50505b505050565b600082821c905092915050565b60006139bb6000198460080261399d565b1980831691505092915050565b60006139d483836139aa565b9150826002028217905092915050565b6139ed826127c3565b67ffffffffffffffff811115613a0657613a05612a27565b5b613a108254613082565b613a1b828285613957565b600060209050601f831160018114613a4e5760008415613a3c578287015190505b613a4685826139c8565b865550613aae565b601f198416613a5c86613838565b60005b82811015613a8457848901518255600182019150602085019450602081019050613a5f565b86831015613aa15784890151613a9d601f8916826139aa565b8355505b6001600288020188555050505b505050505050565b7f4552433732313a20617070726f766520746f2063616c6c657200000000000000600082015250565b6000613aec6019836127ce565b9150613af782613ab6565b602082019050919050565b60006020820190508181036000830152613b1b81613adf565b9050919050565b7f4552433732313a207472616e7366657220746f206e6f6e20455243373231526560008201527f63656976657220696d706c656d656e7465720000000000000000000000000000602082015250565b6000613b7e6032836127ce565b9150613b8982613b22565b604082019050919050565b60006020820190508181036000830152613bad81613b71565b9050919050565b6000613bc08285613306565b9150613bcc8284613306565b91508190509392505050565b7f546f6b656e206e6f74207472616e7366657261626c6500000000000000000000600082015250565b6000613c0e6016836127ce565b9150613c1982613bd8565b602082019050919050565b60006020820190508181036000830152613c3d81613c01565b9050919050565b7f45524337323155524953746f726167653a2055524920736574206f66206e6f6e60008201527f6578697374656e7420746f6b656e000000000000000000000000000000000000602082015250565b6000613ca0602e836127ce565b9150613cab82613c44565b604082019050919050565b60006020820190508181036000830152613ccf81613c93565b9050919050565b600081519050919050565b600082825260208201905092915050565b6000613cfd82613cd6565b613d078185613ce1565b9350613d178185602086016127df565b613d2081612809565b840191505092915050565b6000608082019050613d40600083018761290a565b613d4d602083018661290a565b613d5a60408301856129a0565b8181036060830152613d6c8184613cf2565b905095945050505050565b600081519050613d8681612734565b92915050565b600060208284031215613da257613da16126fe565b5b6000613db084828501613d77565b91505092915050565b7f455243373231456e756d657261626c653a20636f6e736563757469766520747260008201527f616e7366657273206e6f7420737570706f727465640000000000000000000000602082015250565b6000613e156035836127ce565b9150613e2082613db9565b604082019050919050565b60006020820190508181036000830152613e4481613e08565b9050919050565b7f4e487b7100000000000000000000000000000000000000000000000000000000600052601260045260246000fd5b6000613e8582612875565b9150613e9083612875565b9250828203905081811115613ea857613ea761359f565b5b92915050565b7f4e487b7100000000000000000000000000000000000000000000000000000000600052603160045260246000fd5b7f4552433732313a206d696e7420746f20746865207a65726f2061646472657373600082015250565b6000613f136020836127ce565b9150613f1e82613edd565b602082019050919050565b60006020820190508181036000830152613f4281613f06565b9050919050565b7f4552433732313a20746f6b656e20616c7265616479206d696e74656400000000600082015250565b6000613f7f601c836127ce565b9150613f8a82613f49565b602082019050919050565b60006020820190508181036000830152613fae81613f72565b905091905056fea2646970667358221220e9dceb15cbefe6b647debe0712219ffdcd84a9077049ab032b7c14c42b5de48464736f6c63430008130033",
  "linkReferences": {},
  "deployedLinkReferences": {}
}